:100000000C945D000C9485000C9485000C94850084
:100010000C9485000C9485000C9485000C9485004C
:100020000C9485000C9485000C9485000C9485003C
:100030000C9485000C9485000C9485000C9485002C
:100040000C947B020C9485000C94EB020C94C5027A
:100050000C9485000C9485000C9485000C9485000C
:100060000C9485000C9485000000000024002700FB
:100070002A0000000000250028002B0004040404CE
:100080000404040402020202020203030303030342
:10009000010204081020408001020408102001021F
:1000A00004081020000000080002010000030407FB
:1000B0000000000000000000340411241FBECFEF38
:1000C000D8E0DEBFCDBF11E0A0E0B1E0E0E8F9E0AC
:1000D00002C005900D92AA32B107D9F721E0AAE239
:1000E000B1E001C01D92A03DB207E1F710E0CDE5FF
:1000F000D0E004C02197FE010E94B804CC35D1079E
:10010000C9F70E941D030C94BE040C940000AF922A
:10011000BF92CF92DF92EF92FF920F931F93CF93F4
:10012000DF936C017B018B01040F151FEB015E0156
:10013000AE18BF08C017D10759F06991D601ED91EB
:10014000FC910190F081E02DC6010995892B79F78A
:10015000C501DF91CF911F910F91FF90EF90DF903C
:10016000CF90BF90AF900895FC01538D448D252F03
:1001700030E0842F90E0821B930B541710F0CF9641
:10018000089501970895FC01918D828D981761F073
:10019000A28DAE0FBF2FB11D5D968C91928D9F5F8A
:1001A0009F73928F90E008958FEF9FEF0895FC0169
:1001B000918D828D981731F0828DE80FF11D858D1C
:1001C00090E008958FEF9FEF0895FC01918D228DAF
:1001D000892F90E0805C9F4F821B91098F73992734
:1001E000089583E391E00E94E50021E0892B09F462
:1001F00020E0822F089580E090E0892B29F00E9472
:10020000F10081110C9400000895FC01A48DA80F49
:10021000B92FB11DA35ABF4F2C91848D90E0019648
:100220008F739927848FA689B7892C93A089B18968
:100230008C91837080648C93938D848D981306C009
:100240000288F389E02D80818F7D80830895EF926D
:10025000FF920F931F93CF93DF93EC0181E0888F80
:100260009B8D8C8D98131AC0E889F989808185FF50
:1002700015C09FB7F894EE89FF896083E889F989F2
:1002800080818370806480839FBF81E090E0DF91F4
:10029000CF911F910F91FF90EF900895F62E0B8D47
:1002A00010E00F5F1F4F0F731127E02E8C8D8E1102
:1002B0000CC00FB607FCFACFE889F989808185FF69
:1002C000F5CFCE010E940501F1CFEB8DEC0FFD2F94
:1002D000F11DE35AFF4FF0829FB7F8940B8FEA8924
:1002E000FB8980818062CFCFCF93DF93EC01888D33
:1002F0008823B9F0AA89BB89E889F9898C9185FDA1
:1003000003C0808186FD0DC00FB607FCF7CF8C912E
:1003100085FFF2CF808185FFEDCFCE010E940501E0
:10032000E9CFDF91CF91089590E0FC01EC55FF4FAC
:100330002491FC01E057FF4F3491FC01E458FF4F3A
:10034000E491EE23C9F0222339F0233001F1A8F41F
:10035000213019F1223029F1F0E0EE0FFF1FEE58A5
:10036000FF4FA591B4918FB7F894EC91611126C01D
:1003700030953E233C938FBF08952730A9F0283055
:10038000C9F0243049F7809180008F7D03C08091AF
:1003900080008F7780938000DFCF84B58F7784BD16
:1003A000DBCF84B58F7DFBCF8091B0008F778093BA
:1003B000B000D2CF8091B0008F7DF9CF3E2BDACF45
:1003C000CF93DF9390E0FC01E057FF4F24918458D6
:1003D0009F4FFC0184918823D1F090E0880F991FF2
:1003E000FC01E859FF4FA591B491FC01EE58FF4F75
:1003F000C591D49161110EC09FB7F8948C91E22FF2
:10040000E0958E238C932881E223E8839FBFDF91C0
:10041000CF9108958FB7F894EC91E22BEC938FBFB6
:10042000F6CF1F93CF93DF93182FEB0161E00E946B
:10043000E001209739F460E0812FDF91CF911F9187
:100440000C949401CF3FD10511F461E0F5CFE12F79
:10045000F0E0EC55FF4FE491E33031F140F4E1304E
:10046000B1F0E230E1F0C038D1057CF7E4CFE730FD
:1004700029F1E83059F1E430B1F7809180008062D1
:1004800080938000D0938B00C0938A0004C084B511
:10049000806884BDC7BDDF91CF911F91089584B559
:1004A000806284BDC8BDF7CF809180008068809352
:1004B0008000D0938900C0938800EDCF8091B00078
:1004C00080688093B000C093B300E5CF8091B00006
:1004D00080628093B000C093B400DDCFFC01019036
:1004E0000020E9F73197AF01481B590BBC0183E3AA
:1004F00091E00C9487001F920F920FB60F92112477
:100500002F933F938F939F93AF93BF9380912F012E
:1005100090913001A0913101B091320130912E01C2
:1005200023E0230F2D3758F50196A11DB11D20930F
:100530002E0180932F0190933001A0933101B0934D
:10054000320180912A0190912B01A0912C01B09150
:100550002D010196A11DB11D80932A0190932B01BD
:10056000A0932C01B0932D01BF91AF919F918F91DA
:100570003F912F910F900FBE0F901F90189526E876
:10058000230F0296A11DB11DD2CF1F920F920FB65D
:100590000F9211242F933F934F935F936F937F9309
:1005A0008F939F93AF93BF93EF93FF9383E391E078
:1005B0000E940501FF91EF91BF91AF919F918F91A3
:1005C0007F916F915F914F913F912F910F900FBE4F
:1005D0000F901F9018951F920F920FB60F92112433
:1005E0002F938F939F93EF93FF93E0914301F091AB
:1005F00044018081E0914901F0914A0182FD1BC0D4
:10060000908180914C018F5F8F7320914D018217F3
:1006100041F0E0914C01F0E0ED5CFE4F958F80934E
:100620004C01FF91EF919F918F912F910F900FBEF1
:100630000F901F9018958081F4CFCF93DF93CDB7A3
:10064000DEB7A1970FB6F894DEBF0FBECDBF78948A
:1006500084B5826084BD84B5816084BD85B58260C7
:1006600085BD85B5816085BD80916E008160809378
:100670006E001092810080918100826080938100E1
:1006800080918100816080938100809180008160F1
:10069000809380008091B10084608093B10080914C
:1006A000B00081608093B00080917A008460809374
:1006B0007A0080917A00826080937A0080917A003B
:1006C000816080937A0080917A00806880937A00BC
:1006D0001092C100E0914301F091440182E08083D7
:1006E000E0913F01F09140011082E0914101F091D1
:1006F00042018FEC808310924B01E0914701F09111
:10070000480186E08083E0914501F09146018081B7
:1007100080618083E0914501F0914601808188608D
:100720008083E0914501F09146018081806880835B
:10073000E0914501F091460180818F7D808361E0E9
:1007400086E00E94E00161E085E00E94E00160E057
:100750008EE00E94E0018AE0882E912CA12CB12C21
:1007600044244A9493E0592E612C712C20E0222ECF
:1007700020E0322E80E480937C0080917A008064B7
:1007800080937A0080917A0086FDFCCF809178007A
:1007900000917900102F082F82E191E00E946E02F3
:1007A0006801012E000CEE08FF0817FF47C06DE23C
:1007B00083E391E00E94270122273327A9012C1906
:1007C0003D094E095F0919A2FE01B1967F01CA01D8
:1007D000B901A50194010E948004605DF701629354
:1007E0007F01211531054105510589F7E114F10417
:1007F00019F0C7010E946E0287E291E00E946E022A
:100800002FEF30E0D8010E94B104A30192010E94B1
:1008100061046901B90185E00E941102B60186E018
:100820000E9411022114310409F4A4CF0E94F100A6
:10083000882309F49FCF0E9400009CCFA701960156
:1008400019A2CE0181967C01CA01B901A5019401CA
:100850000E948004605DF70162937F0121153105DC
:100860004105510589F7C2CFE3E3F1E0138212821B
:1008700088EE93E0A0E0B0E084839583A683B783FD
:1008800084E091E09183808385EC90E09587848774
:1008900084EC90E09787868780EC90E0918B808B4A
:1008A00081EC90E0938B828B82EC90E0958B848B33
:1008B00086EC90E0978B868B118E128E138E148EA1
:1008C0000895052E97FB1EF400940E94780457FDAE
:1008D00007D00E94800407FC03D04EF40C947804E7
:1008E00050954095309521953F4F4F4F5F4F08955C
:1008F00090958095709561957F4F8F4F9F4F08958C
:10090000A1E21A2EAA1BBB1BFD010DC0AA1FBB1F13
:10091000EE1FFF1FA217B307E407F50720F0A21B85
:10092000B30BE40BF50B661F771F881F991F1A94F2
:1009300069F760957095809590959B01AC01BD011C
:10094000CF010895A29FB001B39FC001A39F700D76
:10095000811D1124911DB29F700D811D1124911DC7
:1009600008950E94A204B7FF0895821B930B089577
:10097000EE0FFF1F0590F491E02D0994F894FFCF3E
:100980000000000027018700B4007401E500C300E7
:10099000D70050686F746F7265736973746F7220DB
:0A09A00076616C75653A000D0A00DF
:00000001FF
