:100000000C9463000C948B000C948B000C948B006C
:100010000C948B000C948B000C948B000C94B90204
:100020000C948B000C948B000C948B000C948B0024
:100030000C948B000C948B000C948B000C948B0014
:100040000C946D030C948B000C943B030C941503DF
:100050000C948B000C948B000C948B000C948B00F4
:100060000C948B000C948B000000000024002700EF
:100070002A0000000008000201000003040700003D
:1000800000000000000000000000230026002900FE
:10009000010204081020408001020408102001021F
:1000A0000408102000000000250028002B00040494
:1000B0000404040404040202020202020303030310
:1000C000030302008E0611241FBECFEFD8E0DEBF6F
:1000D000CDBF11E0A0E0B1E0E2E4F2E102C00590A2
:1000E0000D92A233B107D9F721E0A2E3B1E001C03C
:1000F0001D92A93EB207E1F710E0C3E6D0E004C0CC
:100100002197FE010E941909C236D107C9F70E9442
:10011000FC030C941F090C940000AF92BF92CF9285
:10012000DF92EF92FF920F931F93CF93DF936C01B7
:100130007B018B01040F151FEB015E01AE18BF0898
:10014000C017D10759F06991D601ED91FC9101904A
:10015000F081E02DC6010995892B79F7C501DF9162
:10016000CF911F910F91FF90EF90DF90CF90BF90B4
:10017000AF900895FC01538D448D252F30E0842FDE
:1001800090E0821B930B541710F0CF9608950197BF
:100190000895FC01918D828D981761F0A28DAE0FAC
:1001A000BF2FB11D5D968C91928D9F5F9F73928F33
:1001B00090E008958FEF9FEF0895FC01918D828D5F
:1001C000981731F0828DE80FF11D858D90E008952C
:1001D0008FEF9FEF0895FC01918D228D892F90E084
:1001E000805C9F4F821B91098F73992708958CE43F
:1001F00091E00E94EB0021E0892B09F420E0822F9E
:10020000089580E090E0892B29F00E94F700811189
:100210000C9400000895FC01A48DA80FB92FB11D06
:10022000A35ABF4F2C91848D90E001968F7399272C
:10023000848FA689B7892C93A089B1898C9183700A
:1002400080648C93938D848D981306C00288F38903
:10025000E02D80818F7D80830895EF92FF920F9330
:100260001F93CF93DF93EC0181E0888F9B8D8C8D62
:1002700098131AC0E889F989808185FF15C09FB756
:10028000F894EE89FF896083E889F9898081837019
:10029000806480839FBF81E090E0DF91CF911F91C8
:1002A0000F91FF90EF900895F62E0B8D10E00F5FE9
:1002B0001F4F0F731127E02E8C8D8E110CC00FB6BF
:1002C00007FCFACFE889F989808185FFF5CFCE0157
:1002D0000E940B01F1CFEB8DEC0FFD2FF11DE35AC6
:1002E000FF4FF0829FB7F8940B8FEA89FB898081DA
:1002F0008062CFCFCF93DF93EC01888D8823B9F054
:10030000AA89BB89E889F9898C9185FD03C0808120
:1003100086FD0DC00FB607FCF7CF8C9185FFF2CF9D
:10032000808185FFEDCFCE010E940B01E9CFDF91E7
:10033000CF91089590E0FC01EE58FF4F2491FC010D
:10034000E057FF4F3491FC01E255FF4FE491EE235B
:10035000C9F0222339F0233001F1A8F4213019F13A
:10036000223029F1F0E0EE0FFF1FEC55FF4FA59171
:10037000B4918FB7F894EC91611126C030953E236B
:100380003C938FBF08952730A9F02830C9F024305E
:1003900049F7809180008F7D03C0809180008F7726
:1003A00080938000DFCF84B58F7784BDDBCF84B5A9
:1003B0008F7DFBCF8091B0008F778093B000D2CF3C
:1003C0008091B0008F7DF9CF3E2BDACF9091000164
:1003D00089130BC0E2ECF0E0E4919FEF90930001F1
:1003E000E13049F028F0E23061F060E00C949A01CD
:1003F00010926E00FACF90916F009D7F90936F00E6
:10040000F4CF909170009D7F9093700091E0909355
:10041000B0009091B100987F94609093B1001092D9
:10042000B300E3CFCF93DF9390E0FC01E057FF4FA1
:10043000249182559F4FFC0184918823D1F090E054
:10044000880F991FFC01E859FF4FA591B491FC0159
:10045000EC55FF4FC591D49161110EC09FB7F89430
:100460008C91E22FE0958E238C932881E223E88300
:100470009FBFDF91CF9108958FB7F894EC91E22B55
:10048000EC938FBFF6CF3FB7F894809137019091EE
:100490003801A0913901B0913A0126B5A89B05C059
:1004A0002F3F19F00196A11DB11D3FBFBA2FA92FF3
:1004B000982F8827BC01CD01620F711D811D911DF0
:1004C00042E0660F771F881F991F4A95D1F708955C
:1004D000FC0101900020E9F73197AF01481B590B4F
:1004E000BC018CE491E00C948D008F929F92AF92AE
:1004F000BF920F931F93CF93DF93CDB7DEB7A19732
:100500000FB6F894DEBF0FBECDBF19A2423008F47B
:100510004AE08E010F5D1F4F842E912CB12CA12C2F
:10052000A50194010E94F708E62FB901CA01EA303B
:10053000F4F4E05DD801EE938D01232B242B252BC1
:1005400079F790E080E0109719F0CD010E946802E1
:10055000A1960FB6F894DEBF0FBECDBFDF91CF914D
:100560001F910F91BF90AF909F908F900895E95C7D
:10057000E1CF1F920F920FB60F9211242F933F934A
:100580004F935F936F937F938F939F93AF93BF939B
:10059000EF93FF938091400190914101A09142011E
:1005A000B0914301892B8A2B8B2BD1F190913B0188
:1005B000E0913C01F0913D01808189278083809109
:1005C000400190914101A0914201B0914301181660
:1005D00019061A061B069CF4809140019091410176
:1005E000A0914201B09143010197A109B109809303
:1005F000400190934101A0934201B0934301FF91C8
:10060000EF91BF91AF919F918F917F916F915F918A
:100610004F913F912F910F900FBE0F901F90189503
:10062000809100010E94E601EACF1F920F920FB65F
:100630000F9211242F933F934F935F936F937F9368
:100640008F939F93AF93BF93EF93FF938CE491E0CD
:100650000E940B01FF91EF91BF91AF919F918F91FC
:100660007F916F915F914F913F912F910F900FBEAE
:100670000F901F9018951F920F920FB60F92112492
:100680002F938F939F93EF93FF93E0915C01F091F1
:100690005D018081E0916201F091630182FD1BC0E8
:1006A0009081809165018F5F8F7320916601821721
:1006B00041F0E0916501F0E0E45BFE4F958F80939F
:1006C0006501FF91EF919F918F912F910F900FBE38
:1006D0000F901F9018958081F4CF1F920F920FB644
:1006E0000F9211242F933F938F939F93AF93BF93B8
:1006F0008091330190913401A0913501B091360180
:100700003091320123E0230F2D3758F50196A11DBA
:10071000B11D209332018093330190933401A09353
:100720003501B09336018091370190913801A09145
:100730003901B0913A010196A11DB11D8093370195
:1007400090933801A0933901B0933A01BF91AF91D2
:100750009F918F913F912F910F900FBE0F901F90FF
:10076000189526E8230F0296A11DB11DD2CFCF9276
:10077000DF92EF92FF920F931F93E82FF92F05C09E
:10078000015011092109310961F1908196239417D3
:10079000B9F305C0015011092109310911F1908106
:1007A00096239413F7CFC12CD12CE12CF12C0AC045
:1007B0008FEFC81AD80AE80AF80A0C151D052E058D
:1007C0003F0579F080818623841791F36C2D7D2D70
:1007D0008E2D9F2D1F910F91FF90EF90DF90CF9066
:1007E000089560E070E080E090E01F910F91FF902D
:1007F000EF90DF90CF900895789484B5826084BDA7
:1008000084B5816084BD85B5826085BD85B5816014
:1008100085BD80916E00816080936E001092810092
:10082000809181008260809381008091810081604D
:10083000809381008091800081608093800080910E
:10084000B10084608093B1008091B000816080939A
:10085000B00080917A00846080937A0080917A0061
:10086000826080937A0080917A00816080937A0020
:1008700080917A00806880937A001092C100E091A4
:100880005C01F0915D0182E08083E0915801F0917C
:1008900059011082E0915A01F0915B018FEC808345
:1008A00010926401E0916001F091610186E0808323
:1008B000E0915E01F0915F01808180618083E09131
:1008C0005E01F0915F01808188608083E0915E012C
:1008D000F0915F01808180688083E0915E01F091FA
:1008E0005F0180818F7D808361E089E00E94120238
:1008F00060E08AE00E94120261E088E00E94120239
:1009000056EB252E50E0352EC8E9D0E060E089E0B6
:100910000E949A0183E090E00197F1F761E089E09D
:100920000E949A0183E290E00197F1F760E089E08C
:100930000E949A01EAE9F0E06491E8EBF0E084912A
:10094000E82FF0E0EE0FFF1FEA57FF4F85919491DB
:1009500000E412E42FE030E0462F0E94B703611557
:1009600071058105910529F06F5F7F4F8F4F9F4F74
:100970009F700E94D00726E933E44BE05DE30E94BC
:10098000850820E030E048E453E40E942D076B0125
:100990007C0183E191E00E946802A7019601C701F2
:1009A000B6010E94F208882309F444C08EE191E068
:1009B0000E9468028AE291E00E9468028EE291E061
:1009C0000E94680220E030E040E850E4C701B60130
:1009D0000E94280787FF9EC180910001883009F09E
:1009E000BBC0E2ECF0E0149117FD5BC161E088E070
:1009F0000E941202112309F41EC1123009F032C103
:100A00008091B100887F83608093B10089EF8093EB
:100A1000B3008FEF9FEFDC01809340019093410181
:100A2000A0934201B0934301809170008260809353
:100A3000700037C146015701E894B7F82FEF3FEF38
:100A40004FE75FE7C501B4010E94F20881110DC0B4
:100A50002FEF3FEF4FE75FE7C501B4010E94280782
:100A600018161CF482E291E0A3CF2FEF3FEF4FE77F
:100A70005FE4C701B6010E94800818161CF486E2E4
:100A800091E096CF2FEF3FEF4FE75FECC701B60144
:100A90000E94280787FDF3CF20E030E0A901C701BD
:100AA000B6010E94280787FF54C06DE28CE491E0F4
:100AB0000E942D01C701B60190582AE037ED43EAA4
:100AC0005BE30E94BC062B013C010E949F074B0187
:100AD0005C010E94CE079B01AC01C301B2010E94E0
:100AE000BB062B013C014AE0C501B4010E9475021E
:100AF0006EE28CE491E00E942D0120E030E040E2C3
:100B000051E4C301B2010E9485082B013C010E94FF
:100B10009F074B01B12CA12C4AE0C501B4010E94F2
:100B20007502C501B4010E94CE079B01AC01C3014F
:100B3000B2010E94BB0620E030E040E251E40E9496
:100B400085080E949F0790E080E04AE00E947502BD
:100B500031CFC701B601B1CF8F3F09F0A2C088E005
:100B600080930001E2ECF0E014911F3F09F499C07A
:100B7000113019F150F0123009F43CC017FD91C04A
:100B800061E088E00E94120238CF14BC15BC84B525
:100B9000826084BD85B5816085BDF1018491E82FB7
:100BA000F0E0EE0FFF1FEC55FF4F85919491FE0191
:100BB000849180933F0110E019CF10928000109231
:100BC0008100809181008860809381008091810004
:100BD000816080938100F1018491E82FF0E0EE0FB5
:100BE000FF1FEC55FF4F85919491FE0184918093F6
:100BF0003E01FCCE1092B0001092B1008091B00086
:100C000082608093B0008091B10081608093B100D8
:100C1000F1018491E82FF0E0EE0FFF1FEC55FF4F3C
:100C20008591949190933D0180933C01FE018491C4
:100C300080933B01DBCE85B5887F836085BD8CE7E3
:100C400087BD8FEF9FEFDC018093480190934901AE
:100C5000A0934A01B0934B0180916E008260809313
:100C60006E001FC0113009F04DC080918100887F57
:100C70008160809381008FE39FE19093890080934E
:100C800088008FEF9FEFDC01809344019093450132
:100C9000A0934601B093470180916F0082608093DA
:100CA0006F000E9443024B015C0184E6C82ED12CE8
:100CB000E12CF12C0E944302681979098A099B09E9
:100CC000683E734081059105A8F391E0C91AD108E7
:100CD000E108F108A8EE8A0EA3E09A1EA11CB11C3F
:100CE000C114D104E104F10429F7E0E0F0E0EF2BB6
:100CF00009F40CCE0E94F700882309F407CE0E9465
:100D0000000004CE123021F01111CBCF8FE398CF29
:100D10008FE37DCE88E00E94E601C3CFECE4F1E0F2
:100D20001382128288EE93E0A0E0B0E08483958382
:100D3000A683B78385E091E09183808385EC90E082
:100D40009587848784EC90E09787868780EC90E095
:100D5000918B808B81EC90E0938B828B82EC90E086
:100D6000958B848B86EC90E0978B868B118E128E00
:100D7000138E148E08955058BB27AA270E94D306BD
:100D80000C9446080E94380838F00E943F0820F072
:100D900039F49F3F19F426F40C9435080EF4E095CD
:100DA000E7FB0C942F08E92F0E94570858F3BA1755
:100DB000620773078407950720F079F4A6F50C9471
:100DC00079080EF4E0950B2EBA2FA02D0B01B90176
:100DD00090010C01CA01A0011124FF27591B99F0B1
:100DE000593F50F4503E68F11A16F040A22F232FBD
:100DF000342F4427585FF3CF469537952795A7950D
:100E0000F0405395C9F77EF41F16BA0B620B730BB3
:100E1000840BBAF09150A1F0FF0FBB1F661F771F24
:100E2000881FC2F70EC0BA0F621F731F841F48F4D9
:100E3000879577956795B795F7959E3F08F0B0CF62
:100E40009395880F08F09927EE0F97958795089549
:100E50000E940B0808F481E008950E9441070C9459
:100E600046080E943F0858F00E94380840F029F4D4
:100E70005F3F29F00C942F0851110C947A080C94C0
:100E800035080E94570868F39923B1F3552391F36D
:100E9000951B550BBB27AA2762177307840738F0E9
:100EA0009F5F5F4F220F331F441FAA1FA9F335D046
:100EB0000E2E3AF0E0E832D091505040E695001CFA
:100EC000CAF72BD0FE2F29D0660F771F881FBB1FB4
:100ED000261737074807AB07B0E809F0BB0B802D92
:100EE000BF01FF2793585F4F3AF09E3F510578F0BE
:100EF0000C942F080C947A085F3FE4F3983ED4F3E7
:100F0000869577956795B795F7959F5FC9F7880F91
:100F1000911D9695879597F90895E1E0660F771FE3
:100F2000881FBB1F621773078407BA0720F0621B74
:100F3000730B840BBA0BEE1F88F7E09508950E949F
:100F40005F0888F09F5798F0B92F9927B751B0F0F4
:100F5000E1F0660F771F881F991F1AF0BA95C9F73D
:100F600014C0B13091F00E947908B1E008950C945A
:100F70007908672F782F8827B85F39F0B93FCCF30D
:100F8000869577956795B395D9F73EF490958095BA
:100F9000709561957F4F8F4F9F4F0895E89409C0DA
:100FA00097FB3EF490958095709561957F4F8F4F9C
:100FB0009F4F9923A9F0F92F96E9BB279395F695B2
:100FC000879577956795B795F111F8CFFAF4BB0F30
:100FD00011F460FF1BC06F5F7F4F8F4F9F4F16C094
:100FE000882311F096E911C0772321F09EE8872F1E
:100FF000762F05C0662371F096E8862F70E060E0DA
:101000002AF09A95660F771F881FDAF7880F969552
:10101000879597F90895990F0008550FAA0BE0E8F6
:10102000FEEF16161706E807F907C0F012161306AA
:10103000E407F50798F0621B730B840B950B39F4EA
:101040000A2661F0232B242B252B21F408950A2650
:1010500009F4A140A6958FEF811D811D089597F990
:101060009F6780E870E060E008959FEF80EC08954E
:1010700000240A9416161706180609060895002477
:101080000A9412161306140605060895092E0394F1
:10109000000C11F4882352F0BB0F40F4BF2B11F465
:1010A00060FF04C06F5F7F4F8F4F9F4F089557FDC4
:1010B0009058440F551F59F05F3F71F04795880FC6
:1010C00097FB991F61F09F3F79F08795089512165D
:1010D00013061406551FF2CF4695F1DF08C0161609
:1010E00017061806991FF1CF8695710561050894BA
:1010F0000895E894BB2766277727CB0197F90895D1
:101100000E940B0808F48FEF08950E9498080C9431
:1011100046080E94380838F00E943F0820F09523C6
:1011200011F00C942F080C94350811240C947A08B3
:101130000E94570870F3959FC1F3950F50E0551F1B
:10114000629FF001729FBB27F00DB11D639FAA271C
:10115000F00DB11DAA1F649F6627B00DA11D661F6B
:10116000829F2227B00DA11D621F739FB00DA11D8C
:10117000621F839FA00D611D221F749F3327A00D46
:10118000611D231F849F600D211D822F762F6A2FE2
:1011900011249F5750409AF0F1F088234AF0EE0F47
:1011A000FF1FBB1F661F771F881F91505040A9F774
:1011B0009E3F510580F00C942F080C947A085F3FF5
:1011C000E4F3983ED4F3869577956795B795F795B0
:1011D000E7959F5FC1F7FE2B880F911D9695879528
:1011E00097F908950E940B08880B990B0895A1E2C6
:1011F0001A2EAA1BBB1BFD010DC0AA1FBB1FEE1F91
:10120000FF1FA217B307E407F50720F0A21BB30BDB
:10121000E40BF50B661F771F881F991F1A9469F757
:1012200060957095809590959B01AC01BD01CF01B3
:101230000895EE0FFF1F0590F491E02D0994F894A6
:02124000FFCFDE
:10124200FF000000002D018D00BA007A01EB00C9F9
:1012520000DD0044697374616E63653A20006E615B
:101262006E00696E66006F76660020636D000D0A7F
:0212720000007A
:00000001FF
