:100000000C945D000C9485000C9485000C94850084
:100010000C9485000C9485000C9485000C9485004C
:100020000C9485000C9485000C9485000C9485003C
:100030000C9485000C9485000C9485000C9485002C
:100040000C9411030C9485000C94DF020C94B902FB
:100050000C9485000C9485000C9485000C9485000C
:100060000C9485000C9485000000000024002700FB
:100070002A0000000000250028002B0004040404CE
:100080000404040402020202020203030303030342
:10009000010204081020408001020408102001021F
:1000A00004081020000000080002010000030407FB
:1000B0000000000000000000140511241FBECFEF57
:1000C000D8E0DEBFCDBF11E0A0E0B1E0ECE2F0E1AE
:1000D00002C005900D92A034B107D9F721E0A0E449
:1000E000B1E001C01D92A63EB207E1F710E0CDE5F8
:1000F000D0E004C02197FE010E940E08CC35D10744
:10010000C9F70E945B030C9414080C940000AF9292
:10011000BF92CF92DF92EF92FF920F931F93CF93F4
:10012000DF936C017B018B01040F151FEB015E0156
:10013000AE18BF08C017D10759F06991D601ED91EB
:10014000FC910190F081E02DC6010995892B79F78A
:10015000C501DF91CF911F910F91FF90EF90DF903C
:10016000CF90BF90AF900895FC01538D448D252F03
:1001700030E0842F90E0821B930B541710F0CF9641
:10018000089501970895FC01918D828D981761F073
:10019000A28DAE0FBF2FB11D5D968C91928D9F5F8A
:1001A0009F73928F90E008958FEF9FEF0895FC0169
:1001B000918D828D981731F0828DE80FF11D858D1C
:1001C00090E008958FEF9FEF0895FC01918D228DAF
:1001D000892F90E0805C9F4F821B91098F73992734
:1001E000089589E491E00E94E50021E0892B09F45B
:1001F00020E0822F089580E090E0892B29F00E9472
:10020000F10081110C9400000895FC01A48DA80F49
:10021000B92FB11DA35ABF4F2C91848D90E0019648
:100220008F739927848FA689B7892C93A089B18968
:100230008C91837080648C93938D848D981306C009
:100240000288F389E02D80818F7D80830895EF926D
:10025000FF920F931F93CF93DF93EC0181E0888F80
:100260009B8D8C8D98131AC0E889F989808185FF50
:1002700015C09FB7F894EE89FF896083E889F989F2
:1002800080818370806480839FBF81E090E0DF91F4
:10029000CF911F910F91FF90EF900895F62E0B8D47
:1002A00010E00F5F1F4F0F731127E02E8C8D8E1102
:1002B0000CC00FB607FCFACFE889F989808185FF69
:1002C000F5CFCE010E940501F1CFEB8DEC0FFD2F94
:1002D000F11DE35AFF4FF0829FB7F8940B8FEA8924
:1002E000FB8980818062CFCFCF93DF93EC01888D33
:1002F0008823B9F0AA89BB89E889F9898C9185FDA1
:1003000003C0808186FD0DC00FB607FCF7CF8C912E
:1003100085FFF2CF808185FFEDCFCE010E940501E0
:10032000E9CFDF91CF91089590E0FC01EC55FF4FAC
:100330002491FC01E057FF4F3491FC01E458FF4F3A
:10034000E491EE23C9F0222339F0233001F1A8F41F
:10035000213019F1223029F1F0E0EE0FFF1FEE58A5
:10036000FF4FA591B4918FB7F894EC91611126C01D
:1003700030953E233C938FBF08952730A9F0283055
:10038000C9F0243049F7809180008F7D03C08091AF
:1003900080008F7780938000DFCF84B58F7784BD16
:1003A000DBCF84B58F7DFBCF8091B0008F778093BA
:1003B000B000D2CF8091B0008F7DF9CF3E2BDACF45
:1003C000CF93DF9390E0FC01E057FF4F24918458D6
:1003D0009F4FFC0184918823D1F090E0880F991FF2
:1003E000FC01E859FF4FA591B491FC01EE58FF4F75
:1003F000C591D49161110EC09FB7F8948C91E22FF2
:10040000E0958E238C932881E223E8839FBFDF91C0
:10041000CF9108958FB7F894EC91E22BEC938FBFB6
:10042000F6CF3FB7F8948091450190914601A09195
:100430004701B091480126B5A89B05C02F3F19F090
:100440000196A11DB11D3FBFBA2FA92F982F882754
:10045000BC01CD01620F711D811D911D42E0660F2F
:10046000771F881F991F4A95D1F708958F929F9201
:10047000AF92BF92CF92DF92EF92FF924B015C015D
:100480000E9411026B017C010E9411026C197D090E
:100490008E099F09683E734081059105A8F321E00C
:1004A000821A9108A108B10888EEC80E83E0D81E10
:1004B000E11CF11C81149104A104B10429F7FF90FF
:1004C000EF90DF90CF90BF90AF909F908F90089566
:1004D000FC0101900020E9F73197AF01481B590B4F
:1004E000BC0189E491E00C9487008F929F92AF92B7
:1004F000BF920F931F93CF93DF93CDB7DEB7A19732
:100500000FB6F894DEBF0FBECDBF19A2423008F47B
:100510004AE08E010F5D1F4F842E912CB12CA12C2F
:10052000A50194010E94EC07E62FB901CA01EA3047
:10053000F4F4E05DD801EE938D01232B242B252BC1
:1005400079F790E080E0109719F0CD010E946802E1
:10055000A1960FB6F894DEBF0FBECDBFDF91CF914D
:100560001F910F91BF90AF909F908F900895E95C7D
:10057000E1CF1F920F920FB60F9211242F933F934A
:100580004F935F936F937F938F939F93AF93BF939B
:10059000EF93FF9389E491E00E940501FF91EF91B1
:1005A000BF91AF919F918F917F916F915F914F918B
:1005B0003F912F910F900FBE0F901F9018951F9293
:1005C0000F920FB60F9211242F938F939F93EF9357
:1005D000FF93E0915901F0915A018081E0915F0110
:1005E000F091600182FD1BC09081809162018F5F5C
:1005F0008F7320916301821741F0E0916201F0E076
:10060000E75BFE4F958F80936201FF91EF919F9181
:100610008F912F910F900FBE0F901F901895808192
:10062000F4CF1F920F920FB60F9211242F933F9386
:100630008F939F93AF93BF9380914101909142011B
:10064000A0914301B09144013091400123E0230F78
:100650002D3758F50196A11DB11D209340018093BF
:10066000410190934201A0934301B09344018091D2
:10067000450190914601A0914701B0914801019632
:10068000A11DB11D8093450190934601A0934701A0
:10069000B0934801BF91AF919F918F913F912F915E
:1006A0000F900FBE0F901F90189526E8230F02960B
:1006B000A11DB11DD2CF789484B5826084BD84B56C
:1006C000816084BD85B5826085BD85B5816085BD4D
:1006D00080916E00816080936E0010928100809105
:1006E000810082608093810080918100816080938D
:1006F0008100809180008160809380008091B100B2
:1007000084608093B1008091B00081608093B000DC
:1007100080917A00846080937A0080917A00826070
:1007200080937A0080917A00816080937A00809132
:100730007A00806880937A001092C100E09159019C
:10074000F0915A0182E08083E0915501F0915601C9
:100750001082E0915701F09158018FEC8083109244
:100760006101E0915D01F0915E0186E08083E0919E
:100770005B01F0915C01808180618083E0915B018D
:10078000F0915C01808188608083E0915B01F09151
:100790005C01808180688083E0915B01F0915C0165
:1007A00080818F7D808360E08EE00E94E00161E0C7
:1007B00089E00E94E00161E08AE00E94E00161E0DE
:1007C0008BE00E94E00110E4C0E0D0E010937C00D8
:1007D00080917A00806480937A0080917A0086FD0F
:1007E000FCCF8091780060917900762F682F072EDA
:1007F000000C880B990B0E946D0620E030EC4FE74F
:1008000054E40E94CA0520E030E040EA50E40E942F
:100810007A0720E030E048EC52E40E947A0723E3B4
:1008200033E343E350E40E94CA054B015C010E949C
:10083000A8066B017C01AC019B01C501B4010E94BB
:10084000410520E030E040E05FE30E9475071816A4
:1008500034F4C501B4010E94AE056B017C0182E154
:1008600091E00E946802A7019601C701B6010E94AB
:10087000E707882309F43EC08BE291E00E946802FA
:1008800087E391E00E9468028CE391E00E94680295
:1008900020E030E04CE552E4C701B6010E94750744
:1008A00061E018160CF0B8C089E00E94940160E085
:1008B0008AE00E94940161E08BE00E94E00161E027
:1008C0008BE00E94940160ED77E080E090E00E9470
:1008D000360268EB7BE080E090E00E9436022097D1
:1008E00009F474CF0E94F100882309F46FCF0E94AD
:1008F00000006CCF46015701E894B7F82FEF3FEFA7
:100900004FE75FE7C501B4010E94E70781110DC001
:100910002FEF3FEF4FE75FE7C501B4010E94C50528
:1009200018161CF48FE291E0A9CF2FEF3FEF4FE7AD
:100930005FE4C701B6010E94750718161CF483E333
:1009400091E09CCF2FEF3FEF4FE75FECC701B6017F
:100950000E94C50587FDF3CF20E030E0A901C70163
:10096000B6010E94C50587FF54C06DE289E491E09D
:100970000E942701C701B60190582AE037ED43EAEB
:100980005BE30E9442052B013C010E943C064B01A7
:100990005C010E946B069B01AC01C301B2010E9485
:1009A00041052B013C014AE0C501B4010E947502DA
:1009B0006EE289E491E00E94270120E030E040E20D
:1009C00051E4C301B2010E947A072B013C010E944D
:1009D0003C064B01B12CA12C4AE0C501B4010E9498
:1009E0007502C501B4010E946B069B01AC01C301F5
:1009F000B2010E94410520E030E040E251E40E9453
:100A00007A070E943C0690E080E04AE00E9475026E
:100A100037CFC701B601B1CF8BE00E94E00160E0A3
:100A20008BE00E94940155CFE9E4F1E01382128239
:100A300088EE93E0A0E0B0E084839583A683B7833B
:100A400084E091E09183808385EC90E095878487B2
:100A500084EC90E09787868780EC90E0918B808B88
:100A600081EC90E0938B828B82EC90E0958B848B71
:100A700086EC90E0978B868B118E128E138E148EDF
:100A800008955058BB27AA270E9459050C942307A4
:100A90000E94150738F00E941C0720F039F49F3F90
:100AA00019F426F40C9412070EF4E095E7FB0C946D
:100AB000E306E92F0E94340758F3BA176207730759
:100AC0008407950720F079F4A6F50C946E070EF4D0
:100AD000E0950B2EBA2FA02D0B01B90190010C014E
:100AE000CA01A0011124FF27591B99F0593F50F466
:100AF000503E68F11A16F040A22F232F342F4427BE
:100B0000585FF3CF469537952795A795F0405395B5
:100B1000C9F77EF41F16BA0B620B730B840BBAF085
:100B20009150A1F0FF0FBB1F661F771F881FC2F7F0
:100B30000EC0BA0F621F731F841F48F48795779504
:100B40006795B795F7959E3F08F0B0CF9395880FBE
:100B500008F09927EE0F9795879508950E945607FC
:100B600090F09F3748F4911116F40C946F0760E0F1
:100B700070E080E89FE3089526F01B16611D711D4B
:100B8000811D0C94E9060C9404070E94BF0608F42A
:100B900081E008950E94DE050C9423070E941C0743
:100BA00058F00E94150740F029F45F3F29F00C949B
:100BB000E30651110C946F070C9412070E9434073E
:100BC00068F39923B1F3552391F3951B550BBB277C
:100BD000AA2762177307840738F09F5F5F4F220FC1
:100BE000331F441FAA1FA9F335D00E2E3AF0E0E8B8
:100BF00032D091505040E695001CCAF72BD0FE2F02
:100C000029D0660F771F881FBB1F26173707480795
:100C1000AB07B0E809F0BB0B802DBF01FF2793584D
:100C20005F4F3AF09E3F510578F00C94E3060C9428
:100C30006F075F3FE4F3983ED4F386957795679509
:100C4000B795F7959F5FC9F7880F911D9695879582
:100C500097F90895E1E0660F771F881FBB1F6217A1
:100C600073078407BA0720F0621B730B840BBA0B5F
:100C7000EE1F88F7E09508950E943C0788F09F5783
:100C800098F0B92F9927B751B0F0E1F0660F771FB0
:100C9000881F991F1AF0BA95C9F714C0B13091F0A6
:100CA0000E946E07B1E008950C946E07672F782FAD
:100CB0008827B85F39F0B93FCCF38695779567956B
:100CC000B395D9F73EF490958095709561957F4FD7
:100CD0008F4F9F4F0895E89409C097FB3EF490957D
:100CE0008095709561957F4F8F4F9F4F9923A9F005
:100CF000F92F96E9BB279395F69587957795679594
:100D0000B795F111F8CFFAF4BB0F11F460FF1BC0D7
:100D10006F5F7F4F8F4F9F4F16C0882311F096E96A
:100D200011C0772321F09EE8872F762F05C0662318
:100D300071F096E8862F70E060E02AF09A95660FD1
:100D4000771F881FDAF7880F9695879597F908958A
:100D50000E94560790F09F3748F4911116F00C94BA
:100D60006F0760E070E080E89FEB089526F41B16A3
:100D7000611D711D811D0C94E9060C940407990FE7
:100D80000008550FAA0BE0E8FEEF16161706E80755
:100D9000F907C0F012161306E407F50798F0621B76
:100DA000730B840B950B39F40A2661F0232B242B4B
:100DB000252B21F408950A2609F4A140A6958FEF6A
:100DC000811D811D089597F99F6780E870E060E0BC
:100DD0000895882371F4772321F09850872B762F7C
:100DE00007C0662311F499270DC09051862B70E03F
:100DF00060E02AF09A95660F771F881FDAF7880F50
:100E00009695879597F908959F3F31F0915020F47A
:100E1000879577956795B795880F911D96958795D6
:100E200097F908959FEF80EC089500240A94161610
:100E3000170618060906089500240A9412161306C8
:100E4000140605060895092E0394000C11F4882356
:100E500052F0BB0F40F4BF2B11F460FF04C06F5F72
:100E60007F4F8F4F9F4F089557FD9058440F551F48
:100E700059F05F3F71F04795880F97FB991F61F01C
:100E80009F3F79F087950895121613061406551F93
:100E9000F2CF4695F1DF08C0161617061806991FFF
:100EA000F1CF869571056105089408950E943C076D
:100EB000A0F0BEE7B91788F4BB279F3860F4161678
:100EC000B11D672F782F8827985FF7CF8695779584
:100ED0006795B11D93959639C8F30895E894BB279B
:100EE00066277727CB0197F908950E94BF0608F47B
:100EF0008FEF08950E948D070C9423070E94150719
:100F000038F00E941C0720F0952311F00C94E306A2
:100F10000C94120711240C946F070E94340770F38D
:100F2000959FC1F3950F50E0551F629FF001729F8E
:100F3000BB27F00DB11D639FAA27F00DB11DAA1F9D
:100F4000649F6627B00DA11D661F829F2227B00DEA
:100F5000A11D621F739FB00DA11D621F839FA00D75
:100F6000611D221F749F3327A00D611D231F849FC5
:100F7000600D211D822F762F6A2F11249F5750401C
:100F80009AF0F1F088234AF0EE0FFF1FBB1F661F97
:100F9000771F881F91505040A9F79E3F510580F060
:100FA0000C94E3060C946F075F3FE4F3983ED4F390
:100FB000869577956795B795F795E7959F5FC1F704
:100FC000FE2B880F911D9695879597F908950E949D
:100FD000BF06880B990B0895A1E21A2EAA1BBB1B12
:100FE000FD010DC0AA1FBB1FEE1FFF1FA217B307F5
:100FF000E407F50720F0A21BB30BE40BF50B661F0B
:10100000771F881F991F1A9469F7609570958095CE
:1010100090959B01AC01BD01CF010895EE0FFF1F1C
:0C1020000590F491E02D0994F894FFCFA6
:10102C000000000027018700B4007401E500C30034
:10103C00D70050726F6365737365642054656D706F
:10104C0065726174757265203D20006E616E006979
:10105C006E66006F76660020C2B043000D0A000079
:00000001FF
