:100000000C9462000C948A000C948A000C948A0070
:100010000C948A000C948A000C948A000C948A0038
:100020000C948A000C948A000C948A000C94C003EF
:100030000C948A000C948A000C948A000C948A0018
:100040000C9476030C948A000C9444030C941E03C5
:100050000C948A000C948A000C948A000C948A00F8
:100060000C948A000C948A000000000025002800EF
:100070002B0000000000240027002A0000000000E0
:1000800023002600290004040404040404040202DA
:100090000202020203030303030301020408102007
:1000A0004080010204081020010204081020000012
:1000B0000008000201000003040700000000000027
:1000C00000007C0411241FBECFEFD8E0DEBFCDBFFF
:1000D00011E0A0E0B1E0E4ECFDE002C005900D927B
:1000E000A434B107D9F722E0A4E4B1E001C01D9225
:1000F000A331B207E1F710E0C2E6D0E004C02197D7
:10010000FE010E94DA06C136D107C9F70E94D90460
:100110000C94E0060C9400008F929F92AF92BF92D5
:10012000FF920F931F93CF93DF93F09010022BE079
:100130002F1508F44CC02091120208E512E0021BB2
:10014000110927FD1395000F111F000F111F20919A
:100150001102C8E8D0E0C21BD10927FDD395CC0F0E
:10016000DD1FCC0FDD1F4E010D2E000CAA08BB08B1
:100170009801012E000C440B550B281939094A0926
:100180005B09DC010E94950624EB30E040E050E082
:100190000E946B06820E931EA41EB51E8C169D0631
:1001A0002CF0E801801691060CF4E4012297CC0FA4
:1001B000DD1F2FB7F8948F2D90E0FC01EE0FFF1F8D
:1001C000E80FF91FE551FE4FD283C1832FBFDF91A6
:1001D000CF911F910F91FF90BF90AF909F908F9004
:1001E0000895AF92BF92CF92DF92EF92FF920F935A
:1001F0001F93CF93DF936C017B018B01040F151FBD
:10020000EB015E01AE18BF08C017D10759F0699124
:10021000D601ED91FC910190F081E02DC601099588
:10022000892B79F7C501DF91CF911F910F91FF9035
:10023000EF90DF90CF90BF90AF900895FC01538D69
:10024000448D252F30E0842F90E0821B930B5417B0
:1002500010F0CF96089501970895FC01918D828D3D
:10026000981761F0A28DAE0FBF2FB11D5D968C91D6
:10027000928D9F5F9F73928F90E008958FEF9FEF15
:100280000895FC01918D828D981731F0828DE80FD1
:10029000F11D858D90E008958FEF9FEF0895FC018B
:1002A000918D228D892F90E0805C9F4F821B910958
:1002B0008F73992708958EE491E00E944F0121E009
:1002C000892B09F420E0822F089580E090E0892BAB
:1002D00029F00E945B0181110C9400000895FC013B
:1002E000A48DA80FB92FB11DA35ABF4F2C91848D97
:1002F00090E001968F739927848FA689B7892C93F4
:10030000A089B1898C91837080648C93938D848D46
:10031000981306C00288F389E02D80818F7D808349
:100320000895EF92FF920F931F93CF93DF93EC0109
:1003300081E0888F9B8D8C8D98131AC0E889F9898C
:10034000808185FF15C09FB7F894EE89FF8960838F
:10035000E889F98980818370806480839FBF81E010
:1003600090E0DF91CF911F910F91FF90EF90089552
:10037000F62E0B8D10E00F5F1F4F0F731127E02E2D
:100380008C8D8E110CC00FB607FCFACFE889F98965
:10039000808185FFF5CFCE010E946F01F1CFEB8DFB
:1003A000EC0FFD2FF11DE35AFF4FF0829FB7F89439
:1003B0000B8FEA89FB8980818062CFCFCF93DF9357
:1003C000EC01888D8823B9F0AA89BB89E889F9896D
:1003D0008C9185FD03C0808186FD0DC00FB607FCA2
:1003E000F7CF8C9185FFF2CF808185FFEDCFCE01D5
:1003F0000E946F01E9CFDF91CF910895833081F0A2
:1004000028F4813099F08230A9F008958730A9F05E
:100410008830C9F08430B1F4809180008F7D03C0B2
:10042000809180008F7780938000089584B58F77C6
:1004300084BD089584B58F7DFBCF8091B0008F7708
:100440008093B00008958091B0008F7DF9CF1F9305
:10045000CF93DF93282F30E0F901E255FF4F8491CD
:10046000F901E656FF4FD491F901EA57FF4FC491C5
:10047000CC23A9F0162F81110E94FE01EC2FF0E091
:10048000EE0FFF1FE859FF4FA591B4918FB7F89475
:10049000EC91111108C0D095DE23DC938FBFDF9162
:1004A000CF911F910895DE2BF8CF3FB7F89480913C
:1004B0004A0190914B01A0914C01B0914D0126B59C
:1004C000A89B05C02F3F19F00196A11DB11D3FBF8C
:1004D000BA2FA92F982F8827BC01CD01620F711D5B
:1004E000811D911D42E0660F771F881F991F4A9555
:1004F000D1F708958F929F92AF92BF92CF92DF92E1
:10050000EF92FF924B015C010E9455026B017C014E
:100510000E9455026C197D098E099F09683E73403F
:1005200081059105A8F321E0821A9108A108B1087C
:1005300088EEC80E83E0D81EE11CF11C81149104E2
:10054000A104B10429F7FF90EF90DF90CF90BF9006
:10055000AF909F908F900895FC0101900020E9F7E3
:100560003197AF01481B590BBC018EE491E00C940C
:10057000F1008F929F92AF92BF920F931F93CF93F0
:10058000DF93CDB7DEB7A1970FB6F894DEBF0FBEED
:10059000CDBF19A2423008F44AE08E010F5D1F4F13
:1005A000842E912CB12CA12CA50194010E949D06B2
:1005B000E62FB901CA01EA30F4F4E05DD801EE9308
:1005C0008D01232B242B252B79F790E080E01097C9
:1005D00019F0CD010E94AC02A1960FB6F894DEBFCF
:1005E0000FBECDBFDF91CF911F910F91BF90AF9004
:1005F0009F908F900895E95CE1CFCF92DF92EF92C8
:10060000FF92CF93DF936B017C016DE28EE491E06A
:100610000E949101EC0166277727CB016C197D09B7
:100620008E099F094AE00E94B9028C0F9D1FDF913D
:10063000CF91FF90EF90DF90CF9008951F920F928F
:100640000FB60F9211242F933F934F935F936F93A5
:100650007F938F939F93AF93BF93EF93FF938EE41A
:1006600091E00E946F01FF91EF91BF91AF919F9137
:100670008F917F916F915F914F913F912F910F904B
:100680000FBE0F901F9018951F920F920FB60F92EA
:1006900011242F938F939F93EF93FF93E0915E012B
:1006A000F0915F018081E0916401F091650182FD2C
:1006B0001BC09081809167018F5F8F7320916801CB
:1006C000821741F0E0916701F0E0E25BFE4F958F09
:1006D00080936701FF91EF919F918F912F910F90E0
:1006E0000FBE0F901F9018958081F4CF1F920F922C
:1006F0000FB60F9211242F933F938F939F93AF9335
:10070000BF938091460190914701A0914801B0911B
:1007100049013091450123E0230F2D3758F501960B
:10072000A11DB11D2093450180934601909347017F
:10073000A0934801B093490180914A0190914B01E7
:10074000A0914C01B0914D010196A11DB11D809366
:100750004A0190934B01A0934C01B0934D01BF917E
:10076000AF919F918F913F912F910F900FBE0F905E
:100770001F90189526E8230F0296A11DB11DD2CF18
:100780001F920F920FB60F9211242F933F934F9306
:100790005F936F937F938F939F93AF93BF93CF9309
:1007A000DF93EF93FF9380914401C0910F02D0E05B
:1007B00087FF24C01092850010928400809144012C
:1007C0008F5F8093440180914401082E000C990BA7
:1007D0008C179D0724F4809144018C30C4F18091E2
:1007E000840090918500049680349C4908F47AC076
:1007F0008091840090918500049676C08091440198
:10080000082E000C990B8C179D07C4F6E09144014B
:100810008E2FEE0F990BFC01EE0FFF1FE80FF91F53
:10082000E551FE4F808186FFC9CFE09144018E2FB4
:10083000EE0F990BFC01EE0FFF1FE80FF91FE551BA
:10084000FE4F808160E08F730E942702B7CF209116
:10085000840030918500E09144018E2FEE0F990BBA
:10086000FC01EE0FFF1FE80FF91FE551FE4F8181DC
:100870009281820F931F9093890080938800E0916A
:1008800044018E2FEE0F990BFC01EE0FFF1FE80FB6
:10089000F91FE551FE4F808186FF11C0E0914401B0
:1008A0008E2FEE0F990BFC01EE0FFF1FE80FF91FC3
:1008B000E551FE4F808161E08F730E942702FF9116
:1008C000EF91DF91CF91BF91AF919F918F917F91E8
:1008D0006F915F914F913F912F910F900FBE0F90AD
:1008E0001F90189580E49CE990938900809388007C
:1008F0008FEF80934401E3CF109251011092500189
:1009000088EE93E0A0E0B0E0809352019093530111
:10091000A0935401B093550186E091E090934F016C
:1009200080934E0185EC90E090935B0180935A0197
:1009300084EC90E090935D0180935C0180EC90E00A
:1009400090935F0180935E0181EC90E09093610150
:100950008093600182EC90E0909363018093620148
:1009600086EC90E09093650180936401109267019A
:10097000109268011092690110926A0180910F0231
:100980008C3098F491E0980F90930F0280931002AE
:1009900090E0FC01EE0FFF1FE80FF91FE551FE4F3D
:1009A00088EB9BE09283818308958FEF8093100200
:1009B0000895789484B5826084BD84B5816084BDD7
:1009C00085B5826085BD85B5816085BD80916E00ED
:1009D000816080936E00109281008091810082601E
:1009E000809381008091810081608093810080915B
:1009F00080008160809380008091B100846080934A
:100A0000B1008091B00081608093B00080917A0045
:100A1000846080937A0080917A00826080937A006B
:100A200080917A00816080937A0080917A0080685A
:100A300080937A001092C100E0915E01F0915F0115
:100A400082E08083E0915A01F0915B011082E09195
:100A50005C01F0915D018FEC808310926601E09162
:100A60006201F091630186E08083E0916001F09182
:100A70006101808180618083E0916001F09161017A
:100A8000808188608083E0916001F09161018081C4
:100A900080688083E0916001F091610180818F7DA9
:100AA0008083CCE9D0E0FE01249108E810E0F80151
:100AB00084918823C9F090E0880F991FFC01EE58BB
:100AC000FF4FA591B491FC01E859FF4F4591549116
:100AD0003FB7F8949C91822F809598239C93FA01BC
:100AE0009081892380833FBF809110028C3008F071
:100AF00068C0E3EAF0E02491EFE8F0E08491882315
:100B000099F090E0880F991FFC01EE58FF4FA591D6
:100B1000B491FC01E859FF4F859194918FB7F894F7
:100B2000EC91E22BEC938FBF80911002282F30E0E4
:100B3000F901EE0FFF1FE20FF31FE551FE4F908109
:100B4000907C9960908310921102109212022CE016
:100B5000622F0E94CE06829FB001112430E020E077
:100B6000AB01420F531FFA01EE0FFF1FE40FF51FF9
:100B7000E551FE4F908196FD16C02F5F3F4F2C3000
:100B8000310571F781110FC01092800082E08093CF
:100B900081001092850010928400B19A80916F00BC
:100BA000826080936F00E09110028E2F90E0FC0134
:100BB000EE0FFF1FE80FF91FE551FE4F80818064A3
:100BC00080836091000170910101072E000C880B59
:100BD000990B97FF2DC00E94FD0284E191E00E94D5
:100BE000AC0290EBE92E90E0F92E20E0C22E20E03E
:100BF000D22EF7018491FE01A490F801B490B110B7
:100C00001BC08091000190910101181619061CF17A
:100C100064E670E080E090E00E947A02C114D104A2
:100C200041F30E945B01882321F30E940000E1CF81
:100C30004AE00E94B902D1CF81110E94FE01EB2D42
:100C4000F0E0EE0FFF1FE458FF4FA591B4918C9197
:100C5000A822B9F2DDCF87E191E00E94AC0284E1E5
:100C600091E00E94AC028AE590E00E948C0060ED69
:100C700077E080E090E00E947A0284E291E00E94B6
:100C8000AC0284E191E00E94AC0290E080E00E941E
:100C90008C008091000190910101019790930101D6
:100CA0008093000182E391E00E94AC026091000118
:100CB00070910101072E000C880B990B97FF07C05C
:100CC0000E94FD0284E191E00E94AC02A1CF4AE0C3
:100CD0000E94B902F7CF052E97FB1EF400940E94E4
:100CE000820657FD07D00E949D0607FC03D04EF4F4
:100CF0000C94820650954095309521953F4F4F4F6B
:100D00005F4F089590958095709561957F4F8F4FB7
:100D10009F4F08950E94BF06A59F900DB49F900D10
:100D2000A49F800D911D11240895B7FF0C948A068D
:100D30000E948A06821B930B0895A1E21A2EAA1B19
:100D4000BB1BFD010DC0AA1FBB1FEE1FFF1FA2177B
:100D5000B307E407F50720F0A21BB30BE40BF50B78
:100D6000661F771F881F991F1A9469F76095709501
:100D7000809590959B01AC01BD01CF010895A29F84
:100D8000B001B39FC001A39F700D811D1124911D5F
:100D9000B29F700D811D1124911D0895991B79E05A
:100DA00004C0991F961708F0961B881F7A95C9F7FB
:100DB00080950895EE0FFF1F0590F491E02D0994A2
:040DC000F894FFCFD5
:100DC4000400000000009101F1001E01DE014F014A
:100DD4002D0141010D0A00736572766F5F31204F5A
:100DE40070656E00736572766F5F3120636C6F732C
:100DF400650066726565537061636573206973206D
:040E04003A20000090
:00000001FF
