:020000040000FA
:100000000C9462000C948A000C948A000C948A0070
:100010000C948A000C948A000C948A000C948A0038
:100020000C948A000C948A000C948A000C94580456
:100030000C948A000C948A000C948A000C948A0018
:100040000C940E040C948A000C94DC030C94B603FC
:100050000C948A000C948A000C948A000C948A00F8
:100060000C948A000C948A000000000024002700F1
:100070002A0000000000250028002B0000000000DE
:1000800023002600290004040404040404040202DA
:100090000202020203030303030301020408102007
:1000A0004080010204081020010204081020000012
:1000B0000008000201000003040700000000000027
:1000C0000000140511241FBECFEFD8E0DEBFCDBF66
:1000D00011E0A0E0B1E0E4E4FFE002C005900D9281
:1000E000A436B107D9F722E0A4E6B1E001C01D9221
:1000F000A633B207E1F710E0C2E6D0E004C02197D2
:10010000FE010E949A07C136D107C9F70E948B05EC
:100110000C94A0070C940000AF92BF92CF92DF9294
:10012000EF92FF920F931F93CF93DF936C017B01AC
:100130008B01040F151FEB015E01AE18BF08C0173D
:10014000D10759F06991D601ED91FC910190F081B0
:10015000E02DC6010995892B79F7C501DF91CF9173
:100160001F910F91FF90EF90DF90CF90BF90AF90D5
:100170000895FC01538D448D252F30E0842F90E0AD
:10018000821B930B541710F0CF9608950197089592
:10019000FC01918D828D981761F0A28DAE0FBF2F5B
:1001A000B11D5D968C91928D9F5F9F73928F90E0B1
:1001B00008958FEF9FEF0895FC01918D828D981720
:1001C00031F0828DE80FF11D858D90E008958FEF5D
:1001D0009FEF0895FC01918D228D892F90E0805C26
:1001E0009F4F821B91098F73992708958EE691E0A6
:1001F0000E94EA0021E0892B09F420E0822F089573
:1002000080E090E0892B29F00E94F60081110C9487
:1002100000000895FC01A48DA80FB92FB11DA35AA9
:10022000BF4F2C91848D90E001968F739927848F16
:10023000A689B7892C93A089B1898C918370806439
:100240008C93938D848D981306C00288F389E02DDA
:1002500080818F7D80830895EF92FF920F931F938B
:10026000CF93DF93EC0181E0888F9B8D8C8D981369
:100270001AC0E889F989808185FF15C09FB7F89475
:10028000EE89FF896083E889F989808183708064C1
:1002900080839FBF81E090E0DF91CF911F910F910C
:1002A000FF90EF900895F62E0B8D10E00F5F1F4F1B
:1002B0000F731127E02E8C8D8E110CC00FB607FC2A
:1002C000FACFE889F989808185FFF5CFCE010E94B8
:1002D0000A01F1CFEB8DEC0FFD2FF11DE35AFF4F1B
:1002E000F0829FB7F8940B8FEA89FB898081806246
:1002F000CFCFCF93DF93EC01888D8823B9F0AA8903
:10030000BB89E889F9898C9185FD03C0808186FDD0
:100310000DC00FB607FCF7CF8C9185FFF2CF80811F
:1003200085FFEDCFCE010E940A01E9CFDF91CF9189
:100330000895833081F028F4813099F08230A9F05B
:1003400008958730A9F08830C9F08430B1F48091E5
:1003500080008F7D03C0809180008F778093800024
:10036000089584B58F7784BD089584B58F7DFBCFC4
:100370008091B0008F778093B00008958091B00095
:100380008F7DF9CFCF93DF93282F30E0F901E2552D
:10039000FF4F8491F901E656FF4FD491F901EA57D6
:1003A000FF4FC491CC23A1F081110E949901EC2F41
:1003B000F0E0EE0FFF1FE458FF4FA591B491EC91D0
:1003C000ED2381E090E009F480E0DF91CF91089582
:1003D00080E090E0FACF1F93CF93DF93282F30E097
:1003E000F901E255FF4F8491F901E656FF4FD49190
:1003F000F901EA57FF4FC491CC23A9F0162F8111C0
:100400000E949901EC2FF0E0EE0FFF1FEE58FF4F16
:10041000A591B4918FB7F894EC91111108C0D095C3
:10042000DE23DC938FBFDF91CF911F910895DE2BE8
:10043000F8CFCF93DF9390E0FC01E656FF4F249175
:100440008A579F4FFC0184918823D1F090E0880F58
:10045000991FFC01E859FF4FA591B491FC01EE589A
:10046000FF4FC591D49161110EC09FB7F8948C9144
:10047000E22FE0958E238C932881E223E8839FBFAF
:10048000DF91CF9108958FB7F894EC91E22BEC9324
:100490008FBFF6CF3FB7F89480916A0190916B01BE
:1004A000A0916C01B0916D0126B5A89B05C02F3FAE
:1004B00019F00196A11DB11D3FBFBA2FA92F982F8A
:1004C0008827BC01CD01620F711D811D911D42E085
:1004D000660F771F881F991F4A95D1F708958F924D
:1004E0009F92AF92BF92CF92DF92EF92FF924B0119
:1004F0005C010E944A026B017C010E944A026C1955
:100500007D098E099F09683E734081059105A8F316
:1005100021E0821A9108A108B10888EEC80E83E094
:10052000D81EE11CF11C81149104A104B10429F727
:10053000FF90EF90DF90CF90BF90AF909F908F9003
:1005400008958F929F92AF92BF92FF920F931F9345
:10055000CF93DF93FC01F0808BE08F1508F44AC045
:10056000828108E512E0081B110987FD1395000F31
:10057000111F000F111F8181C8E8D0E0C81BD109ED
:1005800087FDD395CC0FDD1FCC0FDD1F4E010D2E47
:10059000000CAA08BB089801012E000C440B550B57
:1005A000281939094A095B09DB010E94550724EB28
:1005B00030E040E050E00E942B07820E931EA41E04
:1005C000B51E8C169D062CF0E801801691060CF4E1
:1005D000E4012297CC0FDD1F2FB7F8948F2D90E008
:1005E000FC01EE0FFF1FE80FF91FE55FFD4FD283FF
:1005F000C1832FBFDF91CF911F910F91FF90BF90CB
:10060000AF909F908F900895892B79F4109280007D
:1006100082E0809381001092850010928400B19A4C
:1006200080916F00826080936F000895FC010190BB
:100630000020E9F73197AF01481B590BBC018EE64A
:1006400091E00C948C00CF93DF930E941603EC0191
:1006500084E191E00E9416038C0F9D1FDF91CF91E2
:1006600008958F929F92AF92BF92CF92DF92EF92B6
:10067000FF920F931F93CF93DF93CDB7DEB7A19770
:100680000FB6F894DEBF0FBECDBF6C01990FEE0818
:10069000FF08F7FE47C06DE28EE691E00E942C0154
:1006A0008C0122273327A9012C193D094E095F0926
:1006B00019A2CE0181967C019AE0892E912CA12C61
:1006C000B12CCA01B901A50194010E945D07605DCA
:1006D000F70162937F01211531054105510589F725
:1006E00090E080E0309719F0CF010E941603080FC8
:1006F000191F84E191E00E941603800F911FA196BB
:100700000FB6F894DEBF0FBECDBFDF91CF911F9122
:100710000F91FF90EF90DF90CF90BF90AF909F90A0
:100720008F900895A701960119A28E010F5D1F4FAA
:100730008AE0C82ED12CE12CF12CCA01B901A70105
:1007400096010E945D07605DF80162938F0121159B
:1007500031054105510589F7309729F0CF010E94F5
:1007600016038C01C6CF10E000E0C3CF1F920F929A
:100770000FB60F9211242F933F934F935F936F9374
:100780007F938F939F93AF93BF93EF93FF938EE6E7
:1007900091E00E940A01FF91EF91BF91AF919F916B
:1007A0008F917F916F915F914F913F912F910F901A
:1007B0000FBE0F901F9018951F920F920FB60F92B9
:1007C00011242F938F939F93EF93FF93E0917E01DA
:1007D000F0917F018081E0918401F091850182FD9B
:1007E0001BC09081809187018F5F8F73209188015A
:1007F000821741F0E0918701F0E0E259FE4F958FBA
:1008000080938701FF91EF919F918F912F910F908E
:100810000FBE0F901F9018958081F4CF1F920F92FA
:100820000FB60F9211242F933F938F939F93AF9303
:10083000BF938091660190916701A0916801B0918A
:1008400069013091650123E0230F2D3758F501969A
:10085000A11DB11D209365018093660190936701EE
:10086000A0936801B093690180916A0190916B0136
:10087000A0916C01B0916D010196A11DB11D8093F5
:100880006A0190936B01A0936C01B0936D01BF91CD
:10089000AF919F918F913F912F910F900FBE0F902D
:1008A0001F90189526E8230F0296A11DB11DD2CFE7
:1008B0001F920F920FB60F9211242F933F934F93D5
:1008C0005F936F937F938F939F93AF93BF93CF93D8
:1008D000DF93EF93FF9380916401C0912F02D0E0EA
:1008E00087FF24C0109285001092840080916401DB
:1008F0008F5F8093640180916401082E000C990B36
:100900008C179D0724F4809164018C30C4F1809190
:10091000840090918500049680349C4908F47AC044
:100920008091840090918500049676C08091640146
:10093000082E000C990B8C179D07C4F6E0916401FA
:100940008E2FEE0F990BFC01EE0FFF1FE80FF91F22
:10095000E55FFD4F808186FFC9CFE09164018E2F56
:10096000EE0F990BFC01EE0FFF1FE80FF91FE55F7B
:10097000FD4F808160E08F730E94EB01B7CF209123
:10098000840030918500E09164018E2FEE0F990B69
:10099000FC01EE0FFF1FE80FF91FE55FFD4F81819E
:1009A0009281820F931F9093890080938800E09139
:1009B00064018E2FEE0F990BFC01EE0FFF1FE80F65
:1009C000F91FE55FFD4F808186FF11C0E091640152
:1009D0008E2FEE0F990BFC01EE0FFF1FE80FF91F92
:1009E000E55FFD4F808161E08F730E94EB01FF9115
:1009F000EF91DF91CF91BF91AF919F918F917F91B7
:100A00006F915F914F913F912F910F900FBE0F907B
:100A10001F90189580E49CE990938900809388004A
:100A20008FEF80936401E3CF1092710110927001F7
:100A300088EE93E0A0E0B0E08093720190937301A0
:100A4000A0937401B093750186E091E090936F01DB
:100A500080936E0185EC90E090937B0180937A0106
:100A600084EC90E090937D0180937C0180EC90E099
:100A700090937F0180937E0181EC90E090938101BF
:100A80008093800182EC90E09093830180938201B7
:100A900086EC90E090938501809384011092870109
:100AA000109288011092890110928A0180912F0280
:100AB0008C3048F591E0980F90932F028093330289
:100AC00090E0FC01EE0FFF1FE80FF91FE55FFD4FFF
:100AD00088EB9BE09283818380912F028C30B8F465
:100AE00091E0980F90932F028093300290E0FC01E8
:100AF000EE0FFF1FE80FF91FE55FFD4F88EB9BE04E
:100B00009283818308958FEF80933302E5CF8FEF37
:100B1000809330020895789484B5826084BD84B552
:100B2000816084BD85B5826085BD85B5816085BDE8
:100B300080916E00816080936E00109281008091A0
:100B40008100826080938100809181008160809328
:100B50008100809180008160809380008091B1004D
:100B600084608093B1008091B00081608093B00078
:100B700080917A00846080937A0080917A0082600C
:100B800080937A0080917A00816080937A008091CE
:100B90007A00806880937A001092C100E0917E0113
:100BA000F0917F0182E08083E0917A01F0917B01F6
:100BB0001082E0917C01F0917D018FEC8083109296
:100BC0008601E0918201F091830186E08083E091CB
:100BD0008001F0918101808180618083E0918001BA
:100BE000F0918101808188608083E0918001F091A3
:100BF0008101808180688083E0918001F091810192
:100C000080818F7D808360E082E00E94190260E035
:100C100084E00E941902809133028C3008F043C0B6
:100C200061E089E00E94190280913302282F30E0B0
:100C3000F901EE0FFF1FE20FF31FE55FFD4F9081FB
:100C4000907C9960908310923402109235022CE0CF
:100C5000622F0E948E0790E0829FB001112430E045
:100C600020E0AB01420F531FFA01EE0FFF1FE40F0C
:100C7000F51FE55FFD4F408146FD07C02F5F3F4FE9
:100C80002C30310571F70E940403E09133028E2F5E
:100C900090E0FC01EE0FFF1FE80FF91FE55FFD4F2D
:100CA000808180648083809130028C3008F043C062
:100CB00061E08AE00E94190280913002282F30E022
:100CC000F901EE0FFF1FE20FF31FE55FFD4F90816B
:100CD000907C9A60908310923102109232022CE044
:100CE000622F0E948E0790E0829FB001112430E0B5
:100CF00020E0AB01420F531FFA01EE0FFF1FE40F7C
:100D0000F51FE55FFD4F408146FD07C02F5F3F4F58
:100D10002C30310571F70E940403E09130028E2FD0
:100D200090E0FC01EE0FFF1FE80FF91FE55FFD4F9C
:100D300080818064808387E191E00E941603809126
:100D40000001909101010E943103C0E0D0E082E0F7
:100D50000E94C2017C0184E00E94C2018C01EF2844
:100D6000A1F58091000190910101181619066CF50A
:100D700086E291E00E9423036AE570E083E392E05B
:100D80000E94A10260ED77E080E090E00E946F0297
:100D900085E391E00E94230370E060E083E392E04A
:100DA0000E94A1028091000190910101019790930E
:100DB00001018093000187E191E00E941603809178
:100DC0000001909101010E943103012B99F580915E
:100DD00000019091010104976CF585E491E00E9477
:100DE00023036AE570E080E392E00E94A10260EDD7
:100DF00077E080E090E00E946F0284E591E00E943D
:100E0000230370E060E080E392E00E94A102809101
:100E100000019091010101969093010180930001DE
:100E200087E191E00E9416038091000190910101F9
:100E30000E94310364E670E080E090E00E946F025F
:100E4000209709F484CF0E94F600882309F47FCF0D
:100E50000E9400007CCF052E97FB1EF400940E9498
:100E6000420757FD07D00E945D0707FC03D04EF4F0
:100E70000C94420750954095309521953F4F4F4F28
:100E80005F4F089590958095709561957F4F8F4F36
:100E90009F4F08950E947F07A59F900DB49F900DCE
:100EA000A49F800D911D11240895B7FF0C944A074B
:100EB0000E944A07821B930B0895A1E21A2EAA1BD7
:100EC000BB1BFD010DC0AA1FBB1FEE1FFF1FA217FA
:100ED000B307E407F50720F0A21BB30BE40BF50BF7
:100EE000661F771F881F991F1A9469F76095709580
:100EF000809590959B01AC01BD01CF010895A29F03
:100F0000B001B39FC001A39F700D811D1124911DDD
:100F1000B29F700D811D1124911D0895991B79E0D8
:100F200004C0991F961708F0961B881F7A95C9F779
:100F300080950895EE0FFF1F0590F491E02D099420
:100F4000F894FFCF0400000000002C018C00B900D1
:100F50007901EA00C800DC000D0A006672656520B0
:100F6000537061636573203D2000536572766F5F37
:100F700031206F70656E732000536572766F5F313C
:100F800020636C6F7365732000536572766F5F32F8
:100F9000206F70656E732000536572766F5F32202C
:080FA000636C6F7365732000A0
:107E0000112484B714BE81FFF0D085E080938100F7
:107E100082E08093C00088E18093C10086E0809377
:107E2000C20080E18093C4008EE0C9D0259A86E02C
:107E300020E33CEF91E0309385002093840096BBD3
:107E4000B09BFECF1D9AA8958150A9F7CC24DD24C4
:107E500088248394B5E0AB2EA1E19A2EF3E0BF2EE7
:107E6000A2D0813461F49FD0082FAFD0023811F036
:107E7000013811F484E001C083E08DD089C08234E0
:107E800011F484E103C0853419F485E0A6D080C0E4
:107E9000853579F488D0E82EFF2485D0082F10E0AE
:107EA000102F00270E291F29000F111F8ED06801E7
:107EB0006FC0863521F484E090D080E0DECF843638
:107EC00009F040C070D06FD0082F6DD080E0C81688
:107ED00080E7D80618F4F601B7BEE895C0E0D1E017
:107EE00062D089930C17E1F7F0E0CF16F0E7DF06D8
:107EF00018F0F601B7BEE89568D007B600FCFDCFD4
:107F0000A601A0E0B1E02C9130E011968C91119780
:107F100090E0982F8827822B932B1296FA010C0160
:107F200087BEE89511244E5F5F4FF1E0A038BF0790
:107F300051F7F601A7BEE89507B600FCFDCF97BE46
:107F4000E89526C08437B1F42ED02DD0F82E2BD052
:107F50003CD0F601EF2C8F010F5F1F4F84911BD097
:107F6000EA94F801C1F70894C11CD11CFA94CF0C13
:107F7000D11C0EC0853739F428D08EE10CD085E9AC
:107F80000AD08FE07ACF813511F488E018D01DD067
:107F900080E101D065CF982F8091C00085FFFCCF94
:107FA0009093C60008958091C00087FFFCCF809118
:107FB000C00084FD01C0A8958091C6000895E0E648
:107FC000F0E098E1908380830895EDDF803219F02E
:107FD00088E0F5DFFFCF84E1DECF1F93182FE3DFCA
:107FE0001150E9F7F2DF1F91089580E0E8DFEE27F6
:047FF000FF270994CA
:027FFE00040479
:00000001FF
